{
  "contractName": "Coin",
  "abi": [
    {
      "inputs": [],
      "stateMutability": "nonpayable",
      "type": "constructor"
    },
    {
      "anonymous": false,
      "inputs": [
        {
          "indexed": false,
          "internalType": "address",
          "name": "from",
          "type": "address"
        },
        {
          "indexed": false,
          "internalType": "address",
          "name": "to",
          "type": "address"
        },
        {
          "indexed": false,
          "internalType": "uint256",
          "name": "amount",
          "type": "uint256"
        }
      ],
      "name": "TransactionCompleted",
      "type": "event"
    },
    {
      "inputs": [
        {
          "internalType": "uint256",
          "name": "",
          "type": "uint256"
        }
      ],
      "name": "accounts",
      "outputs": [
        {
          "internalType": "address",
          "name": "",
          "type": "address"
        }
      ],
      "stateMutability": "view",
      "type": "function",
      "constant": true
    },
    {
      "inputs": [
        {
          "internalType": "address",
          "name": "",
          "type": "address"
        }
      ],
      "name": "balances",
      "outputs": [
        {
          "internalType": "uint256",
          "name": "",
          "type": "uint256"
        }
      ],
      "stateMutability": "view",
      "type": "function",
      "constant": true
    },
    {
      "inputs": [],
      "name": "minter",
      "outputs": [
        {
          "internalType": "address",
          "name": "",
          "type": "address"
        }
      ],
      "stateMutability": "view",
      "type": "function",
      "constant": true
    },
    {
      "inputs": [],
      "name": "mint",
      "outputs": [],
      "stateMutability": "nonpayable",
      "type": "function"
    },
    {
      "inputs": [
        {
          "internalType": "address",
          "name": "addr",
          "type": "address"
        }
      ],
      "name": "getBalance",
      "outputs": [
        {
          "internalType": "uint256",
          "name": "",
          "type": "uint256"
        }
      ],
      "stateMutability": "view",
      "type": "function",
      "constant": true
    },
    {
      "inputs": [],
      "name": "getBalances",
      "outputs": [
        {
          "internalType": "string[10]",
          "name": "",
          "type": "string[10]"
        }
      ],
      "stateMutability": "view",
      "type": "function",
      "constant": true
    },
    {
      "inputs": [
        {
          "internalType": "address",
          "name": "sender",
          "type": "address"
        },
        {
          "internalType": "address",
          "name": "receiver",
          "type": "address"
        },
        {
          "internalType": "uint256",
          "name": "amount",
          "type": "uint256"
        }
      ],
      "name": "makeTransaction",
      "outputs": [
        {
          "internalType": "int256",
          "name": "",
          "type": "int256"
        }
      ],
      "stateMutability": "nonpayable",
      "type": "function"
    },
    {
      "inputs": [
        {
          "internalType": "address",
          "name": "account",
          "type": "address"
        },
        {
          "internalType": "uint256",
          "name": "amount",
          "type": "uint256"
        }
      ],
      "name": "deductBalance",
      "outputs": [],
      "stateMutability": "nonpayable",
      "type": "function"
    },
    {
      "inputs": [
        {
          "internalType": "address",
          "name": "account",
          "type": "address"
        },
        {
          "internalType": "uint256",
          "name": "amount",
          "type": "uint256"
        }
      ],
      "name": "addBalance",
      "outputs": [],
      "stateMutability": "nonpayable",
      "type": "function"
    }
  ],
  "bytecode": "0x608060405234801561001057600080fd5b50336000806101000a81548173ffffffffffffffffffffffffffffffffffffffff021916908373ffffffffffffffffffffffffffffffffffffffff16021790555060405180610140016040528073288c2e0fead9b374de9c6d06f685fe5af02af9a273ffffffffffffffffffffffffffffffffffffffff1673ffffffffffffffffffffffffffffffffffffffff16815260200173a76df879718c97c39b7ae1c478e2ab704050888373ffffffffffffffffffffffffffffffffffffffff1673ffffffffffffffffffffffffffffffffffffffff16815260200173da3da609fa1821a5b6eb38b744d87e6bd2ec69f873ffffffffffffffffffffffffffffffffffffffff1673ffffffffffffffffffffffffffffffffffffffff16815260200173fc4f732e264056c0e67ff4628bb659bfe54d86d173ffffffffffffffffffffffffffffffffffffffff1673ffffffffffffffffffffffffffffffffffffffff16815260200173645eae8cf8dc770e5bd0ca196ea0eb02a85005cf73ffffffffffffffffffffffffffffffffffffffff1673ffffffffffffffffffffffffffffffffffffffff16815260200173df8d57889843afcde4e5b786f3a8ba00026baaba73ffffffffffffffffffffffffffffffffffffffff1673ffffffffffffffffffffffffffffffffffffffff16815260200173146e5ad6671d8ced3e25d91d298425cf9ec021b373ffffffffffffffffffffffffffffffffffffffff1673ffffffffffffffffffffffffffffffffffffffff16815260200173d0bf06efda59c96fb50c24639c52d6f72762076973ffffffffffffffffffffffffffffffffffffffff1673ffffffffffffffffffffffffffffffffffffffff16815260200173af3c523370a13444e469218641705f8ca90b482373ffffffffffffffffffffffffffffffffffffffff1673ffffffffffffffffffffffffffffffffffffffff1681526020017377cda257efcf749a7f9dc9657048db7e88bbc94a73ffffffffffffffffffffffffffffffffffffffff1673ffffffffffffffffffffffffffffffffffffffff16815250600190600a61032792919061032d565b506103c7565b82600a8101928215610399579160200282015b828111156103985782518260006101000a81548173ffffffffffffffffffffffffffffffffffffffff021916908373ffffffffffffffffffffffffffffffffffffffff16021790555091602001919060010190610340565b5b5090506103a691906103aa565b5090565b5b808211156103c35760008160009055506001016103ab565b5090565b610f00806103d66000396000f3fe608060405234801561001057600080fd5b50600436106100925760003560e01c806327e235e31161006657806327e235e3146100f9578063b68f0bed14610129578063e2fbae4814610159578063f2a40db814610175578063f8b2cb4f146101a557610092565b8062113e081461009757806307546172146100b55780631249c58b146100d357806321e5383a146100dd575b600080fd5b61009f6101d5565b6040516100ac919061094d565b60405180910390f35b6100bd6102fe565b6040516100ca91906109b0565b60405180910390f35b6100db610322565b005b6100f760048036038101906100f29190610a32565b6103c6565b005b610113600480360381019061010e9190610a72565b610420565b6040516101209190610aae565b60405180910390f35b610143600480360381019061013e9190610ac9565b610438565b6040516101509190610b35565b60405180910390f35b610173600480360381019061016e9190610a32565b61059c565b005b61018f600480360381019061018a9190610b50565b6105f6565b60405161019c91906109b0565b60405180910390f35b6101bf60048036038101906101ba9190610a72565b61062c565b6040516101cc9190610aae565b60405180910390f35b6101dd6107d6565b6101e56107d6565b60005b600a8110156102f65760006101fc82610675565b90506000816040516020016102119190610c05565b604051602081830303815290604052905060006102a1600b6000600187600a811061023f5761023e610c27565b5b0160009054906101000a900473ffffffffffffffffffffffffffffffffffffffff1673ffffffffffffffffffffffffffffffffffffffff1673ffffffffffffffffffffffffffffffffffffffff16815260200190815260200160002054610675565b905081816040516020016102b6929190610ca2565b6040516020818303038152906040528585600a81106102d8576102d7610c27565b5b602002018190525050505080806102ee90610d00565b9150506101e8565b508091505090565b60008054906101000a900473ffffffffffffffffffffffffffffffffffffffff1681565b6000620186a0905060005b600a8110156103c25781600b6000600184600a811061034f5761034e610c27565b5b0160009054906101000a900473ffffffffffffffffffffffffffffffffffffffff1673ffffffffffffffffffffffffffffffffffffffff1673ffffffffffffffffffffffffffffffffffffffff1681526020019081526020016000208190555080806103ba90610d00565b91505061032d565b5050565b80600b60008473ffffffffffffffffffffffffffffffffffffffff1673ffffffffffffffffffffffffffffffffffffffff16815260200190815260200160002060008282546104159190610d49565b925050819055505050565b600b6020528060005260406000206000915090505481565b6000600b60008573ffffffffffffffffffffffffffffffffffffffff1673ffffffffffffffffffffffffffffffffffffffff168152602001908152602001600020548211156104a9577fffffffffffffffffffffffffffffffffffffffffffffffffffffffffffffffff9050610595565b81600b60008673ffffffffffffffffffffffffffffffffffffffff1673ffffffffffffffffffffffffffffffffffffffff16815260200190815260200160002060008282546104f89190610d9f565b9250508190555081600b60008573ffffffffffffffffffffffffffffffffffffffff1673ffffffffffffffffffffffffffffffffffffffff168152602001908152602001600020600082825461054e9190610d49565b925050819055507fbdea9514fff93c78513cf82dd97b60a7e6dd83acf38c3f27743c24b1a850ecd184848460405161058893929190610dd3565b60405180910390a1600190505b9392505050565b80600b60008473ffffffffffffffffffffffffffffffffffffffff1673ffffffffffffffffffffffffffffffffffffffff16815260200190815260200160002060008282546105eb9190610d9f565b925050819055505050565b600181600a811061060657600080fd5b016000915054906101000a900473ffffffffffffffffffffffffffffffffffffffff1681565b6000600b60008373ffffffffffffffffffffffffffffffffffffffff1673ffffffffffffffffffffffffffffffffffffffff168152602001908152602001600020549050919050565b606060008214156106bd576040518060400160405280600181526020017f300000000000000000000000000000000000000000000000000000000000000081525090506107d1565b600082905060005b600082146106ef5780806106d890610d00565b915050600a826106e89190610e39565b91506106c5565b60008167ffffffffffffffff81111561070b5761070a610e6a565b5b6040519080825280601f01601f19166020018201604052801561073d5781602001600182028036833780820191505090505b5090505b600085146107ca576001826107569190610d9f565b9150600a856107659190610e99565b60306107719190610d49565b60f81b81838151811061078757610786610c27565b5b60200101907effffffffffffffffffffffffffffffffffffffffffffffffffffffffffffff1916908160001a905350600a856107c39190610e39565b9450610741565b8093505050505b919050565b604051806101400160405280600a905b60608152602001906001900390816107e65790505090565b6000600a9050919050565b600081905092915050565b6000819050919050565b600081519050919050565b600082825260208201905092915050565b60005b8381101561085857808201518184015260208101905061083d565b83811115610867576000848401525b50505050565b6000601f19601f8301169050919050565b60006108898261081e565b6108938185610829565b93506108a381856020860161083a565b6108ac8161086d565b840191505092915050565b60006108c3838361087e565b905092915050565b6000602082019050919050565b60006108e3826107fe565b6108ed8185610809565b9350836020820285016108ff85610814565b8060005b8581101561093b578484038952815161091c85826108b7565b9450610927836108cb565b925060208a01995050600181019050610903565b50829750879550505050505092915050565b6000602082019050818103600083015261096781846108d8565b905092915050565b600073ffffffffffffffffffffffffffffffffffffffff82169050919050565b600061099a8261096f565b9050919050565b6109aa8161098f565b82525050565b60006020820190506109c560008301846109a1565b92915050565b600080fd5b6109d98161098f565b81146109e457600080fd5b50565b6000813590506109f6816109d0565b92915050565b6000819050919050565b610a0f816109fc565b8114610a1a57600080fd5b50565b600081359050610a2c81610a06565b92915050565b60008060408385031215610a4957610a486109cb565b5b6000610a57858286016109e7565b9250506020610a6885828601610a1d565b9150509250929050565b600060208284031215610a8857610a876109cb565b5b6000610a96848285016109e7565b91505092915050565b610aa8816109fc565b82525050565b6000602082019050610ac36000830184610a9f565b92915050565b600080600060608486031215610ae257610ae16109cb565b5b6000610af0868287016109e7565b9350506020610b01868287016109e7565b9250506040610b1286828701610a1d565b9150509250925092565b6000819050919050565b610b2f81610b1c565b82525050565b6000602082019050610b4a6000830184610b26565b92915050565b600060208284031215610b6657610b656109cb565b5b6000610b7484828501610a1d565b91505092915050565b600081905092915050565b7f4163636f756e7420000000000000000000000000000000000000000000000000600082015250565b6000610bbe600883610b7d565b9150610bc982610b88565b600882019050919050565b6000610bdf8261081e565b610be98185610b7d565b9350610bf981856020860161083a565b80840191505092915050565b6000610c1082610bb1565b9150610c1c8284610bd4565b915081905092915050565b7f4e487b7100000000000000000000000000000000000000000000000000000000600052603260045260246000fd5b7f3a20000000000000000000000000000000000000000000000000000000000000600082015250565b6000610c8c600283610b7d565b9150610c9782610c56565b600282019050919050565b6000610cae8285610bd4565b9150610cb982610c7f565b9150610cc58284610bd4565b91508190509392505050565b7f4e487b7100000000000000000000000000000000000000000000000000000000600052601160045260246000fd5b6000610d0b826109fc565b91507fffffffffffffffffffffffffffffffffffffffffffffffffffffffffffffffff821415610d3e57610d3d610cd1565b5b600182019050919050565b6000610d54826109fc565b9150610d5f836109fc565b9250827fffffffffffffffffffffffffffffffffffffffffffffffffffffffffffffffff03821115610d9457610d93610cd1565b5b828201905092915050565b6000610daa826109fc565b9150610db5836109fc565b925082821015610dc857610dc7610cd1565b5b828203905092915050565b6000606082019050610de860008301866109a1565b610df560208301856109a1565b610e026040830184610a9f565b949350505050565b7f4e487b7100000000000000000000000000000000000000000000000000000000600052601260045260246000fd5b6000610e44826109fc565b9150610e4f836109fc565b925082610e5f57610e5e610e0a565b5b828204905092915050565b7f4e487b7100000000000000000000000000000000000000000000000000000000600052604160045260246000fd5b6000610ea4826109fc565b9150610eaf836109fc565b925082610ebf57610ebe610e0a565b5b82820690509291505056fea2646970667358221220b9f4fcb3522a59ae516b8940ed3b4d919caeb21dac534747741a55c95b8114b264736f6c634300080c0033",
  "immutableReferences": {},
  "source": "// SPDX-License-Identifier: GPL-3.0\npragma solidity ^0.8.4;\n\ncontract Coin {\n    // The keyword \"public\" makes variables\n    // accessible from other contracts\n    address public minter;\n    address[10] public accounts;\n    mapping (address => uint) public balances;\n\n\n    // Constructor code is only run when the contract\n    // is created\n    constructor() {\n        minter = msg.sender;\n        accounts =  [0x288c2E0FEaD9B374de9c6D06f685Fe5Af02af9a2,\n                    0xA76dF879718C97c39b7AE1C478E2AB7040508883,\n                    0xdA3DA609Fa1821A5b6EB38b744d87E6Bd2EC69f8,\n                    0xFC4f732e264056C0e67fF4628bB659BFe54D86d1,\n                    0x645eaE8Cf8DC770e5BD0CA196EA0eB02A85005CF,\n                    0xDf8d57889843AFcDe4e5b786F3a8Ba00026Baaba,\n                    0x146e5aD6671D8cED3e25d91D298425cF9EC021b3,\n                    0xd0bF06efDa59c96Fb50C24639c52D6F727620769,\n                    0xaf3C523370A13444e469218641705f8cA90B4823,\n                    0x77cdA257eFCf749a7f9dC9657048Db7E88BbC94A];\n    }\n    // Sends an amount of newly created coins to an address\n    // Can only be called by the contract creator\n    function mint() public {\n        uint starting_balance = 100000;\n        // require(msg.sender == minter);\n\n        for (uint i=0; i<10; i++){\n            balances[accounts[i]] = starting_balance;\n        }\n    }\n\n    function getBalance(address addr) public view returns(uint) {\n        return balances[addr];\n    }\n\n\n    function toString(uint256 value) internal pure returns (string memory) {\n        // Inspired by OraclizeAPI's implementation - MIT licence\n        // https://github.com/oraclize/ethereum-api/blob/b42146b063c7d6ee1358846c198246239e9360e8/oraclizeAPI_0.4.25.sol\n        if (value == 0) {\n            return \"0\";\n        }\n        uint256 temp = value;\n        uint256 digits;\n        while (temp != 0) {\n            digits++;\n            temp /= 10;\n        }\n        bytes memory buffer = new bytes(digits);\n        while (value != 0) {\n            digits -= 1;\n            buffer[digits] = bytes1(uint8(48 + uint256(value % 10)));\n            value /= 10;\n        }\n        return string(buffer);\n    }\n\n    function getBalances() public view returns(string[10] memory) {\n        string[10] memory account_and_balance;\n    \n        for (uint i=0; i<10; i++){\n            \n            string memory i_str = toString(i);\n            string memory account_str = string(abi.encodePacked(\"Account \", i_str));  \n            string memory balance_str = toString(balances[accounts[i]]);\n        \n            account_and_balance[i] = string(abi.encodePacked(account_str, \": \", balance_str));\n        }\n\n        return account_and_balance;\n    }\n\n    // Events allow clients to react to specific\n    // contract changes you declare\n    event TransactionCompleted(address from, address to, uint amount);\n\n    function makeTransaction(address sender, address receiver, uint amount) public returns (int) {\n        if (amount > balances[sender]) {\n            return -1;\n        }\n        // send coins\n        balances[sender] -= amount;\n        balances[receiver] += amount;\n        emit TransactionCompleted(sender, receiver, amount);\n        return 1;\n    }\n\n    // function changeBalance(address account, int amount) public {\n    //     uint u_amount;\n    //     if (amount < 0){\n    //         // subtract balance if ammount is negative\n    //         u_amount = uint(-1*amount);\n    //         balances[account] -= u_amount;\n    //     } else{\n    //         // add balance if ammount is positive\n    //         u_amount = uint(amount);\n    //          balances[account] += u_amount;\n    //     }\n    // }\n\n    function deductBalance(address account, uint amount) public {\n        balances[account] -= amount;\n    }\n\n     function addBalance(address account, uint amount) public {\n        balances[account] += amount;\n    }\n}",
  "sourcePath": "/Users/ishaangulati/Desktop/blockchain/BlockHeads/root/private-network2/truffle/contracts/Coin.sol",
  "compiler": {
    "name": "solc",
    "version": "0.8.12+commit.f00d7308.Emscripten.clang"
  },
  "schemaVersion": "3.4.6",
  "updatedAt": "2022-04-27T23:28:11.855Z",
  "networkType": "ethereum",
  "devdoc": {
    "kind": "dev",
    "methods": {},
    "version": 1
  },
  "userdoc": {
    "kind": "user",
    "methods": {},
    "version": 1
  }
}