{
  "contractName": "Coin",
  "abi": [
    {
      "inputs": [],
      "stateMutability": "nonpayable",
      "type": "constructor"
    },
    {
      "anonymous": false,
      "inputs": [
        {
          "indexed": false,
          "internalType": "address",
          "name": "from",
          "type": "address"
        },
        {
          "indexed": false,
          "internalType": "address",
          "name": "to",
          "type": "address"
        },
        {
          "indexed": false,
          "internalType": "uint256",
          "name": "amount",
          "type": "uint256"
        }
      ],
      "name": "TransactionCompleted",
      "type": "event"
    },
    {
      "inputs": [
        {
          "internalType": "uint256",
          "name": "",
          "type": "uint256"
        }
      ],
      "name": "accounts",
      "outputs": [
        {
          "internalType": "address",
          "name": "",
          "type": "address"
        }
      ],
      "stateMutability": "view",
      "type": "function",
      "constant": true
    },
    {
      "inputs": [
        {
          "internalType": "address",
          "name": "",
          "type": "address"
        }
      ],
      "name": "balances",
      "outputs": [
        {
          "internalType": "uint256",
          "name": "",
          "type": "uint256"
        }
      ],
      "stateMutability": "view",
      "type": "function",
      "constant": true
    },
    {
      "inputs": [],
      "name": "minter",
      "outputs": [
        {
          "internalType": "address",
          "name": "",
          "type": "address"
        }
      ],
      "stateMutability": "view",
      "type": "function",
      "constant": true
    },
    {
      "inputs": [],
      "name": "mint",
      "outputs": [],
      "stateMutability": "nonpayable",
      "type": "function"
    },
    {
      "inputs": [
        {
          "internalType": "address",
          "name": "addr",
          "type": "address"
        }
      ],
      "name": "getBalance",
      "outputs": [
        {
          "internalType": "uint256",
          "name": "",
          "type": "uint256"
        }
      ],
      "stateMutability": "view",
      "type": "function",
      "constant": true
    },
    {
      "inputs": [],
      "name": "getBalances",
      "outputs": [
        {
          "internalType": "string[10]",
          "name": "",
          "type": "string[10]"
        }
      ],
      "stateMutability": "view",
      "type": "function",
      "constant": true
    },
    {
      "inputs": [
        {
          "internalType": "address",
          "name": "sender",
          "type": "address"
        },
        {
          "internalType": "address",
          "name": "receiver",
          "type": "address"
        },
        {
          "internalType": "uint256",
          "name": "amount",
          "type": "uint256"
        }
      ],
      "name": "makeTransaction",
      "outputs": [],
      "stateMutability": "nonpayable",
      "type": "function"
    }
  ],
  "bytecode": "0x608060405234801561001057600080fd5b50336000806101000a81548173ffffffffffffffffffffffffffffffffffffffff021916908373ffffffffffffffffffffffffffffffffffffffff16021790555060405180610140016040528073288c2e0fead9b374de9c6d06f685fe5af02af9a273ffffffffffffffffffffffffffffffffffffffff1673ffffffffffffffffffffffffffffffffffffffff16815260200173a76df879718c97c39b7ae1c478e2ab704050888373ffffffffffffffffffffffffffffffffffffffff1673ffffffffffffffffffffffffffffffffffffffff16815260200173da3da609fa1821a5b6eb38b744d87e6bd2ec69f873ffffffffffffffffffffffffffffffffffffffff1673ffffffffffffffffffffffffffffffffffffffff16815260200173fc4f732e264056c0e67ff4628bb659bfe54d86d173ffffffffffffffffffffffffffffffffffffffff1673ffffffffffffffffffffffffffffffffffffffff16815260200173645eae8cf8dc770e5bd0ca196ea0eb02a85005cf73ffffffffffffffffffffffffffffffffffffffff1673ffffffffffffffffffffffffffffffffffffffff16815260200173df8d57889843afcde4e5b786f3a8ba00026baaba73ffffffffffffffffffffffffffffffffffffffff1673ffffffffffffffffffffffffffffffffffffffff16815260200173146e5ad6671d8ced3e25d91d298425cf9ec021b373ffffffffffffffffffffffffffffffffffffffff1673ffffffffffffffffffffffffffffffffffffffff16815260200173d0bf06efda59c96fb50c24639c52d6f72762076973ffffffffffffffffffffffffffffffffffffffff1673ffffffffffffffffffffffffffffffffffffffff16815260200173af3c523370a13444e469218641705f8ca90b482373ffffffffffffffffffffffffffffffffffffffff1673ffffffffffffffffffffffffffffffffffffffff1681526020017377cda257efcf749a7f9dc9657048db7e88bbc94a73ffffffffffffffffffffffffffffffffffffffff1673ffffffffffffffffffffffffffffffffffffffff16815250600190600a61032792919061032d565b506103c7565b82600a8101928215610399579160200282015b828111156103985782518260006101000a81548173ffffffffffffffffffffffffffffffffffffffff021916908373ffffffffffffffffffffffffffffffffffffffff16021790555091602001919060010190610340565b5b5090506103a691906103aa565b5090565b5b808211156103c35760008160009055506001016103ab565b5090565b610cfe806103d66000396000f3fe608060405234801561001057600080fd5b506004361061007c5760003560e01c806327e235e31161005b57806327e235e3146100c7578063b68f0bed146100f7578063f2a40db814610113578063f8b2cb4f146101435761007c565b8062113e0814610081578063075461721461009f5780631249c58b146100bd575b600080fd5b610089610173565b60405161009691906107bf565b60405180910390f35b6100a761029c565b6040516100b49190610822565b60405180910390f35b6100c56102c0565b005b6100e160048036038101906100dc919061086e565b610364565b6040516100ee91906108b4565b60405180910390f35b610111600480360381019061010c91906108fb565b61037c565b005b61012d6004803603810190610128919061094e565b610468565b60405161013a9190610822565b60405180910390f35b61015d6004803603810190610158919061086e565b61049e565b60405161016a91906108b4565b60405180910390f35b61017b610648565b610183610648565b60005b600a81101561029457600061019a826104e7565b90506000816040516020016101af9190610a03565b6040516020818303038152906040529050600061023f600b6000600187600a81106101dd576101dc610a25565b5b0160009054906101000a900473ffffffffffffffffffffffffffffffffffffffff1673ffffffffffffffffffffffffffffffffffffffff1673ffffffffffffffffffffffffffffffffffffffff168152602001908152602001600020546104e7565b90508181604051602001610254929190610aa0565b6040516020818303038152906040528585600a811061027657610275610a25565b5b6020020181905250505050808061028c90610afe565b915050610186565b508091505090565b60008054906101000a900473ffffffffffffffffffffffffffffffffffffffff1681565b6000620186a0905060005b600a8110156103605781600b6000600184600a81106102ed576102ec610a25565b5b0160009054906101000a900473ffffffffffffffffffffffffffffffffffffffff1673ffffffffffffffffffffffffffffffffffffffff1673ffffffffffffffffffffffffffffffffffffffff16815260200190815260200160002081905550808061035890610afe565b9150506102cb565b5050565b600b6020528060005260406000206000915090505481565b80600b60008573ffffffffffffffffffffffffffffffffffffffff1673ffffffffffffffffffffffffffffffffffffffff16815260200190815260200160002060008282546103cb9190610b47565b9250508190555080600b60008473ffffffffffffffffffffffffffffffffffffffff1673ffffffffffffffffffffffffffffffffffffffff16815260200190815260200160002060008282546104219190610b7b565b925050819055507fbdea9514fff93c78513cf82dd97b60a7e6dd83acf38c3f27743c24b1a850ecd183838360405161045b93929190610bd1565b60405180910390a1505050565b600181600a811061047857600080fd5b016000915054906101000a900473ffffffffffffffffffffffffffffffffffffffff1681565b6000600b60008373ffffffffffffffffffffffffffffffffffffffff1673ffffffffffffffffffffffffffffffffffffffff168152602001908152602001600020549050919050565b6060600082141561052f576040518060400160405280600181526020017f30000000000000000000000000000000000000000000000000000000000000008152509050610643565b600082905060005b6000821461056157808061054a90610afe565b915050600a8261055a9190610c37565b9150610537565b60008167ffffffffffffffff81111561057d5761057c610c68565b5b6040519080825280601f01601f1916602001820160405280156105af5781602001600182028036833780820191505090505b5090505b6000851461063c576001826105c89190610b47565b9150600a856105d79190610c97565b60306105e39190610b7b565b60f81b8183815181106105f9576105f8610a25565b5b60200101907effffffffffffffffffffffffffffffffffffffffffffffffffffffffffffff1916908160001a905350600a856106359190610c37565b94506105b3565b8093505050505b919050565b604051806101400160405280600a905b60608152602001906001900390816106585790505090565b6000600a9050919050565b600081905092915050565b6000819050919050565b600081519050919050565b600082825260208201905092915050565b60005b838110156106ca5780820151818401526020810190506106af565b838111156106d9576000848401525b50505050565b6000601f19601f8301169050919050565b60006106fb82610690565b610705818561069b565b93506107158185602086016106ac565b61071e816106df565b840191505092915050565b600061073583836106f0565b905092915050565b6000602082019050919050565b600061075582610670565b61075f818561067b565b93508360208202850161077185610686565b8060005b858110156107ad578484038952815161078e8582610729565b94506107998361073d565b925060208a01995050600181019050610775565b50829750879550505050505092915050565b600060208201905081810360008301526107d9818461074a565b905092915050565b600073ffffffffffffffffffffffffffffffffffffffff82169050919050565b600061080c826107e1565b9050919050565b61081c81610801565b82525050565b60006020820190506108376000830184610813565b92915050565b600080fd5b61084b81610801565b811461085657600080fd5b50565b60008135905061086881610842565b92915050565b6000602082840312156108845761088361083d565b5b600061089284828501610859565b91505092915050565b6000819050919050565b6108ae8161089b565b82525050565b60006020820190506108c960008301846108a5565b92915050565b6108d88161089b565b81146108e357600080fd5b50565b6000813590506108f5816108cf565b92915050565b6000806000606084860312156109145761091361083d565b5b600061092286828701610859565b935050602061093386828701610859565b9250506040610944868287016108e6565b9150509250925092565b6000602082840312156109645761096361083d565b5b6000610972848285016108e6565b91505092915050565b600081905092915050565b7f4163636f756e7420000000000000000000000000000000000000000000000000600082015250565b60006109bc60088361097b565b91506109c782610986565b600882019050919050565b60006109dd82610690565b6109e7818561097b565b93506109f78185602086016106ac565b80840191505092915050565b6000610a0e826109af565b9150610a1a82846109d2565b915081905092915050565b7f4e487b7100000000000000000000000000000000000000000000000000000000600052603260045260246000fd5b7f3a20000000000000000000000000000000000000000000000000000000000000600082015250565b6000610a8a60028361097b565b9150610a9582610a54565b600282019050919050565b6000610aac82856109d2565b9150610ab782610a7d565b9150610ac382846109d2565b91508190509392505050565b7f4e487b7100000000000000000000000000000000000000000000000000000000600052601160045260246000fd5b6000610b098261089b565b91507fffffffffffffffffffffffffffffffffffffffffffffffffffffffffffffffff821415610b3c57610b3b610acf565b5b600182019050919050565b6000610b528261089b565b9150610b5d8361089b565b925082821015610b7057610b6f610acf565b5b828203905092915050565b6000610b868261089b565b9150610b918361089b565b9250827fffffffffffffffffffffffffffffffffffffffffffffffffffffffffffffffff03821115610bc657610bc5610acf565b5b828201905092915050565b6000606082019050610be66000830186610813565b610bf36020830185610813565b610c0060408301846108a5565b949350505050565b7f4e487b7100000000000000000000000000000000000000000000000000000000600052601260045260246000fd5b6000610c428261089b565b9150610c4d8361089b565b925082610c5d57610c5c610c08565b5b828204905092915050565b7f4e487b7100000000000000000000000000000000000000000000000000000000600052604160045260246000fd5b6000610ca28261089b565b9150610cad8361089b565b925082610cbd57610cbc610c08565b5b82820690509291505056fea26469706673582212205acd849732f542195990cd32d29a1859bd5ffccda51f17105e9ffb001eeccd4364736f6c634300080c0033",
  "immutableReferences": {},
  "source": "// SPDX-License-Identifier: GPL-3.0\npragma solidity ^0.8.4;\n\ncontract Coin {\n    // The keyword \"public\" makes variables\n    // accessible from other contracts\n    address public minter;\n    address[10] public accounts;\n    mapping (address => uint) public balances;\n\n\n    // Constructor code is only run when the contract\n    // is created\n    constructor() {\n        minter = msg.sender;\n        accounts =  [0x288c2E0FEaD9B374de9c6D06f685Fe5Af02af9a2,\n                    0xA76dF879718C97c39b7AE1C478E2AB7040508883,\n                    0xdA3DA609Fa1821A5b6EB38b744d87E6Bd2EC69f8,\n                    0xFC4f732e264056C0e67fF4628bB659BFe54D86d1,\n                    0x645eaE8Cf8DC770e5BD0CA196EA0eB02A85005CF,\n                    0xDf8d57889843AFcDe4e5b786F3a8Ba00026Baaba,\n                    0x146e5aD6671D8cED3e25d91D298425cF9EC021b3,\n                    0xd0bF06efDa59c96Fb50C24639c52D6F727620769,\n                    0xaf3C523370A13444e469218641705f8cA90B4823,\n                    0x77cdA257eFCf749a7f9dC9657048Db7E88BbC94A];\n    }\n    // Sends an amount of newly created coins to an address\n    // Can only be called by the contract creator\n    function mint() public {\n        uint starting_balance = 100000;\n        // require(msg.sender == minter);\n\n        for (uint i=0; i<10; i++){\n            balances[accounts[i]] = starting_balance;\n        }\n    }\n\n    function getBalance(address addr) public view returns(uint) {\n        return balances[addr];\n    }\n\n\n    function toString(uint256 value) internal pure returns (string memory) {\n        // Inspired by OraclizeAPI's implementation - MIT licence\n        // https://github.com/oraclize/ethereum-api/blob/b42146b063c7d6ee1358846c198246239e9360e8/oraclizeAPI_0.4.25.sol\n        if (value == 0) {\n            return \"0\";\n        }\n        uint256 temp = value;\n        uint256 digits;\n        while (temp != 0) {\n            digits++;\n            temp /= 10;\n        }\n        bytes memory buffer = new bytes(digits);\n        while (value != 0) {\n            digits -= 1;\n            buffer[digits] = bytes1(uint8(48 + uint256(value % 10)));\n            value /= 10;\n        }\n        return string(buffer);\n    }\n\n    function getBalances() public view returns(string[10] memory) {\n        string[10] memory account_and_balance;\n    \n        for (uint i=0; i<10; i++){\n            \n            string memory i_str = toString(i);\n            string memory account_str = string(abi.encodePacked(\"Account \", i_str));  \n            string memory balance_str = toString(balances[accounts[i]]);\n        \n            account_and_balance[i] = string(abi.encodePacked(account_str, \": \", balance_str));\n        }\n\n        return account_and_balance;\n    }\n\n    // Events allow clients to react to specific\n    // contract changes you declare\n    event TransactionCompleted(address from, address to, uint amount);\n\n    function makeTransaction(address sender, address receiver, uint amount) public {\n        // send coins\n        balances[sender] -= amount;\n        balances[receiver] += amount;\n        emit TransactionCompleted(sender, receiver, amount);\n\n\n    }\n}",
  "sourcePath": "/Users/ishaangulati/Desktop/blockchain/BlockHeads/root/private-network2/truffle/contracts/Coin.sol",
  "compiler": {
    "name": "solc",
    "version": "0.8.12+commit.f00d7308.Emscripten.clang"
  },
  "schemaVersion": "3.4.6",
  "updatedAt": "2022-04-15T21:08:47.670Z",
  "networkType": "ethereum",
  "devdoc": {
    "kind": "dev",
    "methods": {},
    "version": 1
  },
  "userdoc": {
    "kind": "user",
    "methods": {},
    "version": 1
  }
}