{
  "contractName": "CrossNetworkTransaction",
  "abi": [
    {
      "inputs": [
        {
          "internalType": "address",
          "name": "",
          "type": "address"
        }
      ],
      "name": "pending_transactions",
      "outputs": [
        {
          "internalType": "int256",
          "name": "",
          "type": "int256"
        }
      ],
      "stateMutability": "view",
      "type": "function",
      "constant": true
    },
    {
      "inputs": [
        {
          "internalType": "address",
          "name": "",
          "type": "address"
        }
      ],
      "name": "undo_log",
      "outputs": [
        {
          "internalType": "int256",
          "name": "",
          "type": "int256"
        }
      ],
      "stateMutability": "view",
      "type": "function",
      "constant": true
    },
    {
      "inputs": [
        {
          "internalType": "address",
          "name": "account",
          "type": "address"
        },
        {
          "internalType": "int256",
          "name": "amount",
          "type": "int256"
        }
      ],
      "name": "prepare",
      "outputs": [
        {
          "internalType": "int256",
          "name": "",
          "type": "int256"
        }
      ],
      "stateMutability": "nonpayable",
      "type": "function"
    },
    {
      "inputs": [
        {
          "internalType": "address",
          "name": "account",
          "type": "address"
        }
      ],
      "name": "commit",
      "outputs": [
        {
          "internalType": "int256",
          "name": "",
          "type": "int256"
        }
      ],
      "stateMutability": "nonpayable",
      "type": "function"
    },
    {
      "inputs": [
        {
          "internalType": "address",
          "name": "account",
          "type": "address"
        }
      ],
      "name": "clearTransactionLog",
      "outputs": [
        {
          "internalType": "int256",
          "name": "",
          "type": "int256"
        }
      ],
      "stateMutability": "nonpayable",
      "type": "function"
    },
    {
      "inputs": [
        {
          "internalType": "address",
          "name": "account",
          "type": "address"
        }
      ],
      "name": "abort",
      "outputs": [
        {
          "internalType": "int256",
          "name": "",
          "type": "int256"
        }
      ],
      "stateMutability": "nonpayable",
      "type": "function"
    },
    {
      "inputs": [
        {
          "internalType": "address",
          "name": "account",
          "type": "address"
        }
      ],
      "name": "reverseTransaction",
      "outputs": [
        {
          "internalType": "int256",
          "name": "",
          "type": "int256"
        }
      ],
      "stateMutability": "nonpayable",
      "type": "function"
    },
    {
      "inputs": [
        {
          "internalType": "address",
          "name": "account",
          "type": "address"
        },
        {
          "internalType": "uint256",
          "name": "amount",
          "type": "uint256"
        }
      ],
      "name": "commitAsyncDebit",
      "outputs": [
        {
          "internalType": "int256",
          "name": "",
          "type": "int256"
        }
      ],
      "stateMutability": "nonpayable",
      "type": "function"
    },
    {
      "inputs": [
        {
          "internalType": "address",
          "name": "account",
          "type": "address"
        },
        {
          "internalType": "uint256",
          "name": "amount",
          "type": "uint256"
        }
      ],
      "name": "commitAsyncCredit",
      "outputs": [
        {
          "internalType": "int256",
          "name": "",
          "type": "int256"
        }
      ],
      "stateMutability": "nonpayable",
      "type": "function"
    }
  ],
  "bytecode": "0x6080604052734af1fe1955ed067dcc8bfb8352959b7949d73c6b600260006101000a81548173ffffffffffffffffffffffffffffffffffffffff021916908373ffffffffffffffffffffffffffffffffffffffff16021790555034801561006557600080fd5b50610ec5806100756000396000f3fe608060405234801561001057600080fd5b50600436106100935760003560e01c8063851649c711610066578063851649c71461015857806390cbfa1914610188578063c75f50a7146101b8578063e3ebe2e5146101e8578063fe9eeb291461021857610093565b80630329df5314610098578063369e8c1d146100c85780634fd53aaa146100f85780637a8c0bc814610128575b600080fd5b6100b260048036038101906100ad9190610b62565b610248565b6040516100bf9190610ba8565b60405180910390f35b6100e260048036038101906100dd9190610b62565b610260565b6040516100ef9190610ba8565b60405180910390f35b610112600480360381019061010d9190610bef565b610488565b60405161011f9190610ba8565b60405180910390f35b610142600480360381019061013d9190610c65565b6105d7565b60405161014f9190610ba8565b60405180910390f35b610172600480360381019061016d9190610b62565b6106bb565b60405161017f9190610ba8565b60405180910390f35b6101a2600480360381019061019d9190610b62565b6106d3565b6040516101af9190610ba8565b60405180910390f35b6101d260048036038101906101cd9190610c65565b6106e8565b6040516101df9190610ba8565b60405180910390f35b61020260048036038101906101fd9190610b62565b6108c7565b60405161020f9190610ba8565b60405180910390f35b610232600480360381019061022d9190610b62565b610915565b60405161023f9190610ba8565b60405180910390f35b60006020528060005260406000206000915090505481565b6000806000808473ffffffffffffffffffffffffffffffffffffffff1673ffffffffffffffffffffffffffffffffffffffff1681526020019081526020016000205414156102d0577fffffffffffffffffffffffffffffffffffffffffffffffffffffffffffffffff9050610483565b60008060008473ffffffffffffffffffffffffffffffffffffffff1673ffffffffffffffffffffffffffffffffffffffff1681526020019081526020016000205490506000808212156103df57817fffffffffffffffffffffffffffffffffffffffffffffffffffffffffffffffff6103499190610cd4565b9050600260009054906101000a900473ffffffffffffffffffffffffffffffffffffffff1673ffffffffffffffffffffffffffffffffffffffff1663e2fbae4885836040518363ffffffff1660e01b81526004016103a8929190610e09565b600060405180830381600087803b1580156103c257600080fd5b505af11580156103d6573d6000803e3d6000fd5b50505050610472565b819050600260009054906101000a900473ffffffffffffffffffffffffffffffffffffffff1673ffffffffffffffffffffffffffffffffffffffff166321e5383a85836040518363ffffffff1660e01b815260040161043f929190610e09565b600060405180830381600087803b15801561045957600080fd5b505af115801561046d573d6000803e3d6000fd5b505050505b61047b846108c7565b506001925050505b919050565b60008082121561058957817fffffffffffffffffffffffffffffffffffffffffffffffffffffffffffffffff6104be9190610cd4565b600260009054906101000a900473ffffffffffffffffffffffffffffffffffffffff1673ffffffffffffffffffffffffffffffffffffffff1663f8b2cb4f856040518263ffffffff1660e01b81526004016105199190610e32565b602060405180830381865afa158015610536573d6000803e3d6000fd5b505050506040513d601f19601f8201168201806040525081019061055a9190610e62565b1215610588577fffffffffffffffffffffffffffffffffffffffffffffffffffffffffffffffff90506105d1565b5b816000808573ffffffffffffffffffffffffffffffffffffffff1673ffffffffffffffffffffffffffffffffffffffff16815260200190815260200160002081905550600190505b92915050565b60008082905080600160008673ffffffffffffffffffffffffffffffffffffffff1673ffffffffffffffffffffffffffffffffffffffff16815260200190815260200160002081905550600260009054906101000a900473ffffffffffffffffffffffffffffffffffffffff1673ffffffffffffffffffffffffffffffffffffffff166321e5383a85856040518363ffffffff1660e01b815260040161067e929190610e09565b600060405180830381600087803b15801561069857600080fd5b505af11580156106ac573d6000803e3d6000fd5b50505050600191505092915050565b60016020528060005260406000206000915090505481565b60006106de826108c7565b5060019050919050565b600081600260009054906101000a900473ffffffffffffffffffffffffffffffffffffffff1673ffffffffffffffffffffffffffffffffffffffff1663f8b2cb4f856040518263ffffffff1660e01b81526004016107469190610e32565b602060405180830381865afa158015610763573d6000803e3d6000fd5b505050506040513d601f19601f820116820180604052508101906107879190610e62565b10156107b5577fffffffffffffffffffffffffffffffffffffffffffffffffffffffffffffffff90506108c1565b60008290507fffffffffffffffffffffffffffffffffffffffffffffffffffffffffffffffff816107e69190610cd4565b905080600160008673ffffffffffffffffffffffffffffffffffffffff1673ffffffffffffffffffffffffffffffffffffffff16815260200190815260200160002081905550600260009054906101000a900473ffffffffffffffffffffffffffffffffffffffff1673ffffffffffffffffffffffffffffffffffffffff1663e2fbae4885856040518363ffffffff1660e01b8152600401610889929190610e09565b600060405180830381600087803b1580156108a357600080fd5b505af11580156108b7573d6000803e3d6000fd5b5050505060019150505b92915050565b6000806000808473ffffffffffffffffffffffffffffffffffffffff1673ffffffffffffffffffffffffffffffffffffffff1681526020019081526020016000208190555060019050919050565b600080600160008473ffffffffffffffffffffffffffffffffffffffff1673ffffffffffffffffffffffffffffffffffffffff1681526020019081526020016000205490506000811215610a2d576000817fffffffffffffffffffffffffffffffffffffffffffffffffffffffffffffffff6109919190610cd4565b9050600260009054906101000a900473ffffffffffffffffffffffffffffffffffffffff1673ffffffffffffffffffffffffffffffffffffffff166321e5383a85836040518363ffffffff1660e01b81526004016109f0929190610e09565b600060405180830381600087803b158015610a0a57600080fd5b505af1158015610a1e573d6000803e3d6000fd5b50505050600192505050610afa565b6000811315610ad5576000819050600260009054906101000a900473ffffffffffffffffffffffffffffffffffffffff1673ffffffffffffffffffffffffffffffffffffffff1663e2fbae4885836040518363ffffffff1660e01b8152600401610a98929190610e09565b600060405180830381600087803b158015610ab257600080fd5b505af1158015610ac6573d6000803e3d6000fd5b50505050600192505050610afa565b7fffffffffffffffffffffffffffffffffffffffffffffffffffffffffffffffff9150505b919050565b600080fd5b600073ffffffffffffffffffffffffffffffffffffffff82169050919050565b6000610b2f82610b04565b9050919050565b610b3f81610b24565b8114610b4a57600080fd5b50565b600081359050610b5c81610b36565b92915050565b600060208284031215610b7857610b77610aff565b5b6000610b8684828501610b4d565b91505092915050565b6000819050919050565b610ba281610b8f565b82525050565b6000602082019050610bbd6000830184610b99565b92915050565b610bcc81610b8f565b8114610bd757600080fd5b50565b600081359050610be981610bc3565b92915050565b60008060408385031215610c0657610c05610aff565b5b6000610c1485828601610b4d565b9250506020610c2585828601610bda565b9150509250929050565b6000819050919050565b610c4281610c2f565b8114610c4d57600080fd5b50565b600081359050610c5f81610c39565b92915050565b60008060408385031215610c7c57610c7b610aff565b5b6000610c8a85828601610b4d565b9250506020610c9b85828601610c50565b9150509250929050565b7f4e487b7100000000000000000000000000000000000000000000000000000000600052601160045260246000fd5b6000610cdf82610b8f565b9150610cea83610b8f565b9250827f7fffffffffffffffffffffffffffffffffffffffffffffffffffffffffffffff0482116000841360008413161615610d2957610d28610ca5565b5b817f80000000000000000000000000000000000000000000000000000000000000000583126000841260008413161615610d6657610d65610ca5565b5b827f80000000000000000000000000000000000000000000000000000000000000000582126000841360008412161615610da357610da2610ca5565b5b827f7fffffffffffffffffffffffffffffffffffffffffffffffffffffffffffffff0582126000841260008412161615610de057610ddf610ca5565b5b828202905092915050565b610df481610b24565b82525050565b610e0381610c2f565b82525050565b6000604082019050610e1e6000830185610deb565b610e2b6020830184610dfa565b9392505050565b6000602082019050610e476000830184610deb565b92915050565b600081519050610e5c81610c39565b92915050565b600060208284031215610e7857610e77610aff565b5b6000610e8684828501610e4d565b9150509291505056fea2646970667358221220e415b5d060f31d6e931b553f5583a1675c1ccb9579d3dd580a24e2bc3d948aeb64736f6c634300080c0033",
  "immutableReferences": {},
  "source": "// SPDX-License-Identifier: GPL-3.0\npragma solidity ^0.8.4;\n\nimport \"./Coin.sol\";\n\ncontract CrossNetworkTransaction {\n\n    // state variable for synchronous protocol\n    mapping (address => int) public pending_transactions; \n\n    // state variable for asynchronous protocol\n    mapping (address => int) public undo_log; \n    \n    // contract address\n    Coin _coin = Coin(0x4Af1fE1955Ed067dcC8BfB8352959b7949d73c6b);\n\n\n\n\n\n    // synchronous functions\n    function prepare(address account, int amount) public returns(int) {\n       \n        if (amount < 0){\n            // account is sending coins. balance verification required\n            if (int(_coin.getBalance(account)) < (-1*amount)){\n                // insufficient balance for transaction\n                return -1;\n            }\n        }\n        //  pending_transactions is used later to commit the transaction or undo transaction preparation\n        pending_transactions[account] = amount;\n        return 1;\n    }\n\n    function commit(address account) public returns (int){\n    \n        if (pending_transactions[account] == 0){\n            return -1;\n        }\n\n        int delta_amount = pending_transactions[account];\n        uint amount;\n        if (delta_amount < 0){\n            amount = uint(-1*delta_amount);\n            _coin.deductBalance(account, amount);\n        } else {\n            amount = uint(delta_amount);\n            _coin.addBalance(account, amount);\n        }\n\n        clearTransactionLog(account);\n        return 1;\n    }\n\n    function clearTransactionLog(address account) public returns (int){\n        pending_transactions[account] = 0;\n        return 1;\n    }\n\n    function abort(address account) public returns (int){\n        clearTransactionLog(account);\n        return 1;\n    }\n\n\n\n\n    // asynchronous functions\n    function reverseTransaction(address account) public returns(int){\n        \n        int delta_amount = undo_log[account];\n        if (delta_amount < 0){\n            // the transaction was a debit, so we add the amount back to reverse it\n            uint amount = uint(-1*delta_amount);\n            _coin.addBalance(account, amount);\n            return 1;\n        } \n        else if (delta_amount > 0){\n            // the transaction was a credit, so we deduct the amount to reverse it\n            uint amount = uint(delta_amount);\n            _coin.deductBalance(account, amount);\n            return 1;\n        }\n        else{\n            // there is no entry for this account in the undo log\n            return -1;\n        }\n    }\n\n    function commitAsyncDebit(address account, uint amount)  public returns(int){\n        // account is sending coins. balance verification required\n        if (_coin.getBalance(account) < amount){\n            // insufficient balance for transaction\n            return -1;\n        }\n\n        // log transaction in undo log\n        int delta_amount = int(amount);\n        delta_amount *= -1;\n        undo_log[account] = delta_amount;\n\n        // commit debit\n        _coin.deductBalance(account, amount);\n\n        return 1;\n    }\n\n    function commitAsyncCredit(address account, uint amount)  public returns(int){\n        \n        // log transaction in undo log\n        int delta_amount = int(amount);\n        undo_log[account] = delta_amount;\n\n        // commit debit\n        _coin.addBalance(account, amount);\n\n        return 1;\n    }\n}",
  "sourcePath": "/Users/ishaangulati/Desktop/blockchain/BlockHeads/root/private-network2/truffle/contracts/CrossNetworkTransaction.sol",
  "compiler": {
    "name": "solc",
    "version": "0.8.12+commit.f00d7308.Emscripten.clang"
  },
  "schemaVersion": "3.4.6",
  "updatedAt": "2022-04-27T23:34:22.518Z",
  "networkType": "ethereum",
  "devdoc": {
    "kind": "dev",
    "methods": {},
    "version": 1
  },
  "userdoc": {
    "kind": "user",
    "methods": {},
    "version": 1
  }
}