{
  "contractName": "Coin",
  "abi": [
    {
      "inputs": [],
      "stateMutability": "nonpayable",
      "type": "constructor"
    },
    {
      "anonymous": false,
      "inputs": [
        {
          "indexed": false,
          "internalType": "address",
          "name": "from",
          "type": "address"
        },
        {
          "indexed": false,
          "internalType": "address",
          "name": "to",
          "type": "address"
        },
        {
          "indexed": false,
          "internalType": "uint256",
          "name": "amount",
          "type": "uint256"
        }
      ],
      "name": "TransactionCompleted",
      "type": "event"
    },
    {
      "inputs": [
        {
          "internalType": "uint256",
          "name": "",
          "type": "uint256"
        }
      ],
      "name": "accounts",
      "outputs": [
        {
          "internalType": "address",
          "name": "",
          "type": "address"
        }
      ],
      "stateMutability": "view",
      "type": "function",
      "constant": true
    },
    {
      "inputs": [
        {
          "internalType": "address",
          "name": "",
          "type": "address"
        }
      ],
      "name": "balances",
      "outputs": [
        {
          "internalType": "uint256",
          "name": "",
          "type": "uint256"
        }
      ],
      "stateMutability": "view",
      "type": "function",
      "constant": true
    },
    {
      "inputs": [],
      "name": "minter",
      "outputs": [
        {
          "internalType": "address",
          "name": "",
          "type": "address"
        }
      ],
      "stateMutability": "view",
      "type": "function",
      "constant": true
    },
    {
      "inputs": [],
      "name": "mint",
      "outputs": [],
      "stateMutability": "nonpayable",
      "type": "function"
    },
    {
      "inputs": [
        {
          "internalType": "address",
          "name": "addr",
          "type": "address"
        }
      ],
      "name": "getBalance",
      "outputs": [
        {
          "internalType": "uint256",
          "name": "",
          "type": "uint256"
        }
      ],
      "stateMutability": "view",
      "type": "function",
      "constant": true
    },
    {
      "inputs": [],
      "name": "getBalances",
      "outputs": [
        {
          "internalType": "string[10]",
          "name": "",
          "type": "string[10]"
        }
      ],
      "stateMutability": "view",
      "type": "function",
      "constant": true
    },
    {
      "inputs": [
        {
          "internalType": "address",
          "name": "sender",
          "type": "address"
        },
        {
          "internalType": "address",
          "name": "receiver",
          "type": "address"
        },
        {
          "internalType": "uint256",
          "name": "amount",
          "type": "uint256"
        }
      ],
      "name": "makeTransaction",
      "outputs": [
        {
          "internalType": "int256",
          "name": "",
          "type": "int256"
        }
      ],
      "stateMutability": "nonpayable",
      "type": "function"
    },
    {
      "inputs": [
        {
          "internalType": "address",
          "name": "account",
          "type": "address"
        },
        {
          "internalType": "uint256",
          "name": "amount",
          "type": "uint256"
        }
      ],
      "name": "deductBalance",
      "outputs": [],
      "stateMutability": "nonpayable",
      "type": "function"
    },
    {
      "inputs": [
        {
          "internalType": "address",
          "name": "account",
          "type": "address"
        },
        {
          "internalType": "uint256",
          "name": "amount",
          "type": "uint256"
        }
      ],
      "name": "addBalance",
      "outputs": [],
      "stateMutability": "nonpayable",
      "type": "function"
    }
  ],
  "bytecode": "0x608060405234801561001057600080fd5b50336000806101000a81548173ffffffffffffffffffffffffffffffffffffffff021916908373ffffffffffffffffffffffffffffffffffffffff160217905550604051806101400160405280730caa0c75eb072abf72a61df0a2cd84a8d8e078da73ffffffffffffffffffffffffffffffffffffffff1673ffffffffffffffffffffffffffffffffffffffff16815260200173d9437084aaa20716c43b8da138591b5ac7acf9a673ffffffffffffffffffffffffffffffffffffffff1673ffffffffffffffffffffffffffffffffffffffff168152602001733af25d87fe2422ced6a2bbbbedf27825983235a273ffffffffffffffffffffffffffffffffffffffff1673ffffffffffffffffffffffffffffffffffffffff168152602001733b3efc0ddd12845b1f310e746be522440f2e00d073ffffffffffffffffffffffffffffffffffffffff1673ffffffffffffffffffffffffffffffffffffffff1681526020017345bf2462d250a614bb28b391215004eed2a7b99e73ffffffffffffffffffffffffffffffffffffffff1673ffffffffffffffffffffffffffffffffffffffff16815260200173bedbba51b64ec575e28156c16980211b88d12b4973ffffffffffffffffffffffffffffffffffffffff1673ffffffffffffffffffffffffffffffffffffffff1681526020017351f47a0b2a62433828bd256a40b408df9cc7578273ffffffffffffffffffffffffffffffffffffffff1673ffffffffffffffffffffffffffffffffffffffff168152602001731e02f1624962c1777324d51382436bc969537f2973ffffffffffffffffffffffffffffffffffffffff1673ffffffffffffffffffffffffffffffffffffffff16815260200173d316b5e627f2beb8c95e7ed786afde75a3a90bba73ffffffffffffffffffffffffffffffffffffffff1673ffffffffffffffffffffffffffffffffffffffff16815260200173aad5e06b60d5b9210a02c3001f784dd2d20cd25273ffffffffffffffffffffffffffffffffffffffff1673ffffffffffffffffffffffffffffffffffffffff16815250600190600a61032792919061032d565b506103c7565b82600a8101928215610399579160200282015b828111156103985782518260006101000a81548173ffffffffffffffffffffffffffffffffffffffff021916908373ffffffffffffffffffffffffffffffffffffffff16021790555091602001919060010190610340565b5b5090506103a691906103aa565b5090565b5b808211156103c35760008160009055506001016103ab565b5090565b610e8e806103d66000396000f3fe608060405234801561001057600080fd5b50600436106100925760003560e01c806327e235e31161006657806327e235e3146100f9578063b68f0bed14610129578063e2fbae4814610159578063f2a40db814610175578063f8b2cb4f146101a557610092565b8062113e081461009757806307546172146100b55780631249c58b146100d357806321e5383a146100dd575b600080fd5b61009f6101d5565b6040516100ac9190610912565b60405180910390f35b6100bd6102fe565b6040516100ca9190610975565b60405180910390f35b6100db610322565b005b6100f760048036038101906100f291906109f7565b6103c6565b005b610113600480360381019061010e9190610a37565b610420565b6040516101209190610a73565b60405180910390f35b610143600480360381019061013e9190610a8e565b610438565b6040516101509190610afa565b60405180910390f35b610173600480360381019061016e91906109f7565b610561565b005b61018f600480360381019061018a9190610b15565b6105bb565b60405161019c9190610975565b60405180910390f35b6101bf60048036038101906101ba9190610a37565b6105f1565b6040516101cc9190610a73565b60405180910390f35b6101dd61079b565b6101e561079b565b60005b600a8110156102f65760006101fc8261063a565b90506000816040516020016102119190610bca565b604051602081830303815290604052905060006102a1600b6000600187600a811061023f5761023e610bec565b5b0160009054906101000a900473ffffffffffffffffffffffffffffffffffffffff1673ffffffffffffffffffffffffffffffffffffffff1673ffffffffffffffffffffffffffffffffffffffff1681526020019081526020016000205461063a565b905081816040516020016102b6929190610c67565b6040516020818303038152906040528585600a81106102d8576102d7610bec565b5b602002018190525050505080806102ee90610cc5565b9150506101e8565b508091505090565b60008054906101000a900473ffffffffffffffffffffffffffffffffffffffff1681565b6000620186a0905060005b600a8110156103c25781600b6000600184600a811061034f5761034e610bec565b5b0160009054906101000a900473ffffffffffffffffffffffffffffffffffffffff1673ffffffffffffffffffffffffffffffffffffffff1673ffffffffffffffffffffffffffffffffffffffff1681526020019081526020016000208190555080806103ba90610cc5565b91505061032d565b5050565b80600b60008473ffffffffffffffffffffffffffffffffffffffff1673ffffffffffffffffffffffffffffffffffffffff16815260200190815260200160002060008282546104159190610d0e565b925050819055505050565b600b6020528060005260406000206000915090505481565b6000600b60008573ffffffffffffffffffffffffffffffffffffffff1673ffffffffffffffffffffffffffffffffffffffff168152602001908152602001600020548211156104a9577fffffffffffffffffffffffffffffffffffffffffffffffffffffffffffffffff905061055a565b81600b60008673ffffffffffffffffffffffffffffffffffffffff1673ffffffffffffffffffffffffffffffffffffffff16815260200190815260200160002060008282546104f89190610d64565b9250508190555081600b60008573ffffffffffffffffffffffffffffffffffffffff1673ffffffffffffffffffffffffffffffffffffffff168152602001908152602001600020600082825461054e9190610d0e565b92505081905550600190505b9392505050565b80600b60008473ffffffffffffffffffffffffffffffffffffffff1673ffffffffffffffffffffffffffffffffffffffff16815260200190815260200160002060008282546105b09190610d64565b925050819055505050565b600181600a81106105cb57600080fd5b016000915054906101000a900473ffffffffffffffffffffffffffffffffffffffff1681565b6000600b60008373ffffffffffffffffffffffffffffffffffffffff1673ffffffffffffffffffffffffffffffffffffffff168152602001908152602001600020549050919050565b60606000821415610682576040518060400160405280600181526020017f30000000000000000000000000000000000000000000000000000000000000008152509050610796565b600082905060005b600082146106b457808061069d90610cc5565b915050600a826106ad9190610dc7565b915061068a565b60008167ffffffffffffffff8111156106d0576106cf610df8565b5b6040519080825280601f01601f1916602001820160405280156107025781602001600182028036833780820191505090505b5090505b6000851461078f5760018261071b9190610d64565b9150600a8561072a9190610e27565b60306107369190610d0e565b60f81b81838151811061074c5761074b610bec565b5b60200101907effffffffffffffffffffffffffffffffffffffffffffffffffffffffffffff1916908160001a905350600a856107889190610dc7565b9450610706565b8093505050505b919050565b604051806101400160405280600a905b60608152602001906001900390816107ab5790505090565b6000600a9050919050565b600081905092915050565b6000819050919050565b600081519050919050565b600082825260208201905092915050565b60005b8381101561081d578082015181840152602081019050610802565b8381111561082c576000848401525b50505050565b6000601f19601f8301169050919050565b600061084e826107e3565b61085881856107ee565b93506108688185602086016107ff565b61087181610832565b840191505092915050565b60006108888383610843565b905092915050565b6000602082019050919050565b60006108a8826107c3565b6108b281856107ce565b9350836020820285016108c4856107d9565b8060005b8581101561090057848403895281516108e1858261087c565b94506108ec83610890565b925060208a019950506001810190506108c8565b50829750879550505050505092915050565b6000602082019050818103600083015261092c818461089d565b905092915050565b600073ffffffffffffffffffffffffffffffffffffffff82169050919050565b600061095f82610934565b9050919050565b61096f81610954565b82525050565b600060208201905061098a6000830184610966565b92915050565b600080fd5b61099e81610954565b81146109a957600080fd5b50565b6000813590506109bb81610995565b92915050565b6000819050919050565b6109d4816109c1565b81146109df57600080fd5b50565b6000813590506109f1816109cb565b92915050565b60008060408385031215610a0e57610a0d610990565b5b6000610a1c858286016109ac565b9250506020610a2d858286016109e2565b9150509250929050565b600060208284031215610a4d57610a4c610990565b5b6000610a5b848285016109ac565b91505092915050565b610a6d816109c1565b82525050565b6000602082019050610a886000830184610a64565b92915050565b600080600060608486031215610aa757610aa6610990565b5b6000610ab5868287016109ac565b9350506020610ac6868287016109ac565b9250506040610ad7868287016109e2565b9150509250925092565b6000819050919050565b610af481610ae1565b82525050565b6000602082019050610b0f6000830184610aeb565b92915050565b600060208284031215610b2b57610b2a610990565b5b6000610b39848285016109e2565b91505092915050565b600081905092915050565b7f4163636f756e7420000000000000000000000000000000000000000000000000600082015250565b6000610b83600883610b42565b9150610b8e82610b4d565b600882019050919050565b6000610ba4826107e3565b610bae8185610b42565b9350610bbe8185602086016107ff565b80840191505092915050565b6000610bd582610b76565b9150610be18284610b99565b915081905092915050565b7f4e487b7100000000000000000000000000000000000000000000000000000000600052603260045260246000fd5b7f3a20000000000000000000000000000000000000000000000000000000000000600082015250565b6000610c51600283610b42565b9150610c5c82610c1b565b600282019050919050565b6000610c738285610b99565b9150610c7e82610c44565b9150610c8a8284610b99565b91508190509392505050565b7f4e487b7100000000000000000000000000000000000000000000000000000000600052601160045260246000fd5b6000610cd0826109c1565b91507fffffffffffffffffffffffffffffffffffffffffffffffffffffffffffffffff821415610d0357610d02610c96565b5b600182019050919050565b6000610d19826109c1565b9150610d24836109c1565b9250827fffffffffffffffffffffffffffffffffffffffffffffffffffffffffffffffff03821115610d5957610d58610c96565b5b828201905092915050565b6000610d6f826109c1565b9150610d7a836109c1565b925082821015610d8d57610d8c610c96565b5b828203905092915050565b7f4e487b7100000000000000000000000000000000000000000000000000000000600052601260045260246000fd5b6000610dd2826109c1565b9150610ddd836109c1565b925082610ded57610dec610d98565b5b828204905092915050565b7f4e487b7100000000000000000000000000000000000000000000000000000000600052604160045260246000fd5b6000610e32826109c1565b9150610e3d836109c1565b925082610e4d57610e4c610d98565b5b82820690509291505056fea2646970667358221220dbee52212c870325b97c7a0b7537e4105bd14cb25821e11efc375b5faf9af0d164736f6c634300080c0033",
  "immutableReferences": {},
  "source": "// SPDX-License-Identifier: GPL-3.0\npragma solidity ^0.8.4;\n\ncontract Coin {\n    // The keyword \"public\" makes variables\n    // accessible from other contracts\n    address public minter;\n    address[10] public accounts;\n    mapping (address => uint) public balances;\n\n\n    // Constructor code is only run when the contract\n    // is created\n    constructor() {\n        minter = msg.sender;\n        accounts =  [0x0cAA0C75eb072ABf72a61dF0a2Cd84A8d8E078da,\n                    0xd9437084aaA20716C43B8dA138591b5aC7acF9A6, \n                    0x3af25D87fE2422CeD6a2bbbbeDf27825983235A2, \n                    0x3b3efc0dDd12845B1F310E746be522440F2E00D0,\n                    0x45Bf2462d250A614bB28b391215004EeD2a7b99E, \n                    0xBedbba51B64ec575e28156c16980211B88d12b49, \n                    0x51f47a0B2A62433828BD256A40b408df9CC75782, \n                    0x1e02F1624962c1777324D51382436Bc969537F29, \n                    0xD316b5e627F2BeB8c95e7Ed786AFDe75a3a90bba, \n                    0xaaD5e06B60D5B9210a02C3001F784dD2d20Cd252];\n    }\n    // Sends an amount of newly created coins to an address\n    // Can only be called by the contract creator\n    function mint() public {\n        uint starting_balance = 100000;\n        // require(msg.sender == minter);\n\n        for (uint i=0; i<10; i++){\n            balances[accounts[i]] = starting_balance;\n        }\n    }\n\n    function getBalance(address addr) public view returns(uint) {\n        return balances[addr];\n    }\n\n\n    function toString(uint256 value) internal pure returns (string memory) {\n        // Inspired by OraclizeAPI's implementation - MIT licence\n        // https://github.com/oraclize/ethereum-api/blob/b42146b063c7d6ee1358846c198246239e9360e8/oraclizeAPI_0.4.25.sol\n        if (value == 0) {\n            return \"0\";\n        }\n        uint256 temp = value;\n        uint256 digits;\n        while (temp != 0) {\n            digits++;\n            temp /= 10;\n        }\n        bytes memory buffer = new bytes(digits);\n        while (value != 0) {\n            digits -= 1;\n            buffer[digits] = bytes1(uint8(48 + uint256(value % 10)));\n            value /= 10;\n        }\n        return string(buffer);\n    }\n\n    function getBalances() public view returns(string[10] memory) {\n        string[10] memory account_and_balance;\n    \n        for (uint i=0; i<10; i++){\n            \n            string memory i_str = toString(i);\n            string memory account_str = string(abi.encodePacked(\"Account \", i_str));  \n            string memory balance_str = toString(balances[accounts[i]]);\n        \n            account_and_balance[i] = string(abi.encodePacked(account_str, \": \", balance_str));\n        }\n\n        return account_and_balance;\n    }\n\n    // Events allow clients to react to specific\n    // contract changes you declare\n    event TransactionCompleted(address from, address to, uint amount);\n\n    function makeTransaction(address sender, address receiver, uint amount) public returns (int) {\n        if (amount > balances[sender]) {\n            return -1;\n        }\n        // send coins\n        balances[sender] -= amount;\n        balances[receiver] += amount;\n        // emit TransactionCompleted(sender, receiver, amount);\n        return 1;\n    }\n\n    // function changeBalance(address account, int amount) public {\n    //     uint u_amount;\n    //     if (amount < 0){\n    //         // subtract balance if ammount is negative\n    //         u_amount = uint(-1*amount);\n    //         balances[account] -= u_amount;\n    //     } else{\n    //         // add balance if ammount is positive\n    //         u_amount = uint(amount);\n    //          balances[account] += u_amount;\n    //     }\n    // }\n\n    function deductBalance(address account, uint amount) public {\n        balances[account] -= amount;\n    }\n\n     function addBalance(address account, uint amount) public {\n        balances[account] += amount;\n    }\n}",
  "sourcePath": "/Users/ishaangulati/Desktop/blockchain/BlockHeads/root/private-network1/truffle/contracts/Coin.sol",
  "compiler": {
    "name": "solc",
    "version": "0.8.12+commit.f00d7308.Emscripten.clang"
  },
  "schemaVersion": "3.4.6",
  "updatedAt": "2022-04-28T00:24:55.855Z",
  "networkType": "ethereum",
  "devdoc": {
    "kind": "dev",
    "methods": {},
    "version": 1
  },
  "userdoc": {
    "kind": "user",
    "methods": {},
    "version": 1
  }
}