{
  "contractName": "Coin",
  "abi": [
    {
      "inputs": [
        {
          "internalType": "address",
          "name": "",
          "type": "address"
        }
      ],
      "name": "balances",
      "outputs": [
        {
          "internalType": "uint256",
          "name": "",
          "type": "uint256"
        }
      ],
      "stateMutability": "view",
      "type": "function"
    },
    {
      "inputs": [],
      "name": "minter",
      "outputs": [
        {
          "internalType": "address",
          "name": "",
          "type": "address"
        }
      ],
      "stateMutability": "view",
      "type": "function"
    },
    {
      "inputs": [
        {
          "internalType": "address",
          "name": "addr",
          "type": "address"
        }
      ],
      "name": "getBalance",
      "outputs": [
        {
          "internalType": "uint256",
          "name": "",
          "type": "uint256"
        }
      ],
      "stateMutability": "view",
      "type": "function"
    }
  ],
  "bytecode": "0x608060405234801561001057600080fd5b5061026d806100206000396000f3fe608060405234801561001057600080fd5b50600436106100415760003560e01c8063075461721461004657806327e235e314610064578063f8b2cb4f14610094575b600080fd5b61004e6100c4565b60405161005b919061018a565b60405180910390f35b61007e600480360381019061007991906101d6565b6100e8565b60405161008b919061021c565b60405180910390f35b6100ae60048036038101906100a991906101d6565b610100565b6040516100bb919061021c565b60405180910390f35b60008054906101000a900473ffffffffffffffffffffffffffffffffffffffff1681565b60016020528060005260406000206000915090505481565b6000600160008373ffffffffffffffffffffffffffffffffffffffff1673ffffffffffffffffffffffffffffffffffffffff168152602001908152602001600020549050919050565b600073ffffffffffffffffffffffffffffffffffffffff82169050919050565b600061017482610149565b9050919050565b61018481610169565b82525050565b600060208201905061019f600083018461017b565b92915050565b600080fd5b6101b381610169565b81146101be57600080fd5b50565b6000813590506101d0816101aa565b92915050565b6000602082840312156101ec576101eb6101a5565b5b60006101fa848285016101c1565b91505092915050565b6000819050919050565b61021681610203565b82525050565b6000602082019050610231600083018461020d565b9291505056fea264697066735822122091ea3dd60860a6806a0ba4634c1f119baecdfa08a7e1e7885d252d834fdb433a64736f6c634300080c0033",
  "immutableReferences": {},
  "source": "// SPDX-License-Identifier: GPL-3.0\npragma solidity ^0.8.4;\n\ncontract Coin {\n    // The keyword \"public\" makes variables\n    // accessible from other contracts\n    address public minter;\n    mapping (address => uint) public balances;\n\n    function getBalance(address addr) public view returns(uint) {\n        return balances[addr];\n    }\n}",
  "sourcePath": "/Users/ishaangulati/Desktop/blockchain/BlockHeads/root/private-network1/truffle/contracts/Coin.sol",
  "compiler": {
    "name": "solc",
    "version": "0.8.12+commit.f00d7308.Emscripten.clang"
  },
  "schemaVersion": "3.4.6",
  "updatedAt": "2022-04-19T01:21:38.762Z",
  "devdoc": {
    "kind": "dev",
    "methods": {},
    "version": 1
  },
  "userdoc": {
    "kind": "user",
    "methods": {},
    "version": 1
  }
}