{
  "contractName": "CrossNewtorkTransaaction",
  "abi": [
    {
      "inputs": [
        {
          "internalType": "address",
          "name": "",
          "type": "address"
        }
      ],
      "name": "pending_transactions",
      "outputs": [
        {
          "internalType": "int256",
          "name": "",
          "type": "int256"
        }
      ],
      "stateMutability": "view",
      "type": "function"
    },
    {
      "inputs": [
        {
          "internalType": "address",
          "name": "account",
          "type": "address"
        },
        {
          "internalType": "int256",
          "name": "amount",
          "type": "int256"
        }
      ],
      "name": "prepare",
      "outputs": [
        {
          "internalType": "int256",
          "name": "",
          "type": "int256"
        }
      ],
      "stateMutability": "nonpayable",
      "type": "function"
    },
    {
      "inputs": [
        {
          "internalType": "address",
          "name": "account",
          "type": "address"
        }
      ],
      "name": "commit",
      "outputs": [
        {
          "internalType": "int256",
          "name": "",
          "type": "int256"
        }
      ],
      "stateMutability": "nonpayable",
      "type": "function"
    },
    {
      "inputs": [
        {
          "internalType": "address",
          "name": "account",
          "type": "address"
        }
      ],
      "name": "clearTransactionLog",
      "outputs": [
        {
          "internalType": "int256",
          "name": "",
          "type": "int256"
        }
      ],
      "stateMutability": "nonpayable",
      "type": "function"
    },
    {
      "inputs": [
        {
          "internalType": "address",
          "name": "account",
          "type": "address"
        }
      ],
      "name": "abort",
      "outputs": [
        {
          "internalType": "int256",
          "name": "",
          "type": "int256"
        }
      ],
      "stateMutability": "nonpayable",
      "type": "function"
    }
  ],
  "bytecode": "0x60806040527320c319d05fdb8ae786053e7cdc734324d9804e36600160006101000a81548173ffffffffffffffffffffffffffffffffffffffff021916908373ffffffffffffffffffffffffffffffffffffffff16021790555034801561006557600080fd5b50610750806100756000396000f3fe608060405234801561001057600080fd5b50600436106100575760003560e01c80630329df531461005c578063369e8c1d1461008c5780634fd53aaa146100bc57806390cbfa19146100ec578063e3ebe2e51461011c575b600080fd5b61007660048036038101906100719190610451565b61014c565b6040516100839190610497565b60405180910390f35b6100a660048036038101906100a19190610451565b610164565b6040516100b39190610497565b60405180910390f35b6100d660048036038101906100d191906104de565b61023c565b6040516100e39190610497565b60405180910390f35b61010660048036038101906101019190610451565b61038b565b6040516101139190610497565b60405180910390f35b61013660048036038101906101319190610451565b6103a0565b6040516101439190610497565b60405180910390f35b60006020528060005260406000206000915090505481565b6000600160009054906101000a900473ffffffffffffffffffffffffffffffffffffffff1673ffffffffffffffffffffffffffffffffffffffff1663da75bb94836000808673ffffffffffffffffffffffffffffffffffffffff1673ffffffffffffffffffffffffffffffffffffffff168152602001908152602001600020546040518363ffffffff1660e01b815260040161020192919061052d565b600060405180830381600087803b15801561021b57600080fd5b505af115801561022f573d6000803e3d6000fd5b5050505060019050919050565b60008082121561033d57817fffffffffffffffffffffffffffffffffffffffffffffffffffffffffffffffff6102729190610585565b600160009054906101000a900473ffffffffffffffffffffffffffffffffffffffff1673ffffffffffffffffffffffffffffffffffffffff1663f8b2cb4f856040518263ffffffff1660e01b81526004016102cd919061069c565b602060405180830381865afa1580156102ea573d6000803e3d6000fd5b505050506040513d601f19601f8201168201806040525081019061030e91906106ed565b121561033c577fffffffffffffffffffffffffffffffffffffffffffffffffffffffffffffffff9050610385565b5b816000808573ffffffffffffffffffffffffffffffffffffffff1673ffffffffffffffffffffffffffffffffffffffff16815260200190815260200160002081905550600190505b92915050565b6000610396826103a0565b5060019050919050565b6000806000808473ffffffffffffffffffffffffffffffffffffffff1673ffffffffffffffffffffffffffffffffffffffff1681526020019081526020016000208190555060019050919050565b600080fd5b600073ffffffffffffffffffffffffffffffffffffffff82169050919050565b600061041e826103f3565b9050919050565b61042e81610413565b811461043957600080fd5b50565b60008135905061044b81610425565b92915050565b600060208284031215610467576104666103ee565b5b60006104758482850161043c565b91505092915050565b6000819050919050565b6104918161047e565b82525050565b60006020820190506104ac6000830184610488565b92915050565b6104bb8161047e565b81146104c657600080fd5b50565b6000813590506104d8816104b2565b92915050565b600080604083850312156104f5576104f46103ee565b5b60006105038582860161043c565b9250506020610514858286016104c9565b9150509250929050565b61052781610413565b82525050565b6000604082019050610542600083018561051e565b61054f6020830184610488565b9392505050565b7f4e487b7100000000000000000000000000000000000000000000000000000000600052601160045260246000fd5b60006105908261047e565b915061059b8361047e565b9250827f7fffffffffffffffffffffffffffffffffffffffffffffffffffffffffffffff04821160008413600084131616156105da576105d9610556565b5b817f8000000000000000000000000000000000000000000000000000000000000000058312600084126000841316161561061757610616610556565b5b827f8000000000000000000000000000000000000000000000000000000000000000058212600084136000841216161561065457610653610556565b5b827f7fffffffffffffffffffffffffffffffffffffffffffffffffffffffffffffff058212600084126000841216161561069157610690610556565b5b828202905092915050565b60006020820190506106b1600083018461051e565b92915050565b6000819050919050565b6106ca816106b7565b81146106d557600080fd5b50565b6000815190506106e7816106c1565b92915050565b600060208284031215610703576107026103ee565b5b6000610711848285016106d8565b9150509291505056fea2646970667358221220acf65004af7406116e93d9a976871b77325ff6248e0081180e48c5528f8909ce64736f6c634300080c0033",
  "immutableReferences": {},
  "source": "// SPDX-License-Identifier: GPL-3.0\npragma solidity ^0.8.4;\n\nimport \"./Coin.sol\";\n\ncontract CrossNewtorkTransaaction {\n\n    mapping (address => int) public pending_transactions; \n    \n    // contract address\n    Coin _coin = Coin(0x20C319d05fDB8Ae786053E7cdc734324D9804e36);\n\n    function prepare(address account, int amount) public returns(int) {\n       \n        if (amount < 0){\n            // account is sending coins. balance verification required\n            if (int(_coin.getBalance(account)) < (-1*amount)){\n                // insufficient balance for transaction\n                return -1;\n            }\n        }\n        //  pending_transactions is used later to commit the transaction or undo transaction preparation\n        pending_transactions[account] = amount;\n        return 1;\n    }\n\n    function commit(address account) public returns (int){\n        // commit balance change\n        _coin.changeBalance(account, pending_transactions[account]);\n        return 1;\n    }\n\n    function clearTransactionLog(address account) public returns (int){\n        pending_transactions[account] = 0;\n        return 1;\n    }\n\n    function abort(address account) public returns (int){\n        clearTransactionLog(account);\n        return 1;\n    }\n}",
  "sourcePath": "/Users/ishaangulati/Desktop/blockchain/BlockHeads/root/private-network1/truffle/contracts/CrossNetworkTransaction.sol",
  "compiler": {
    "name": "solc",
    "version": "0.8.12+commit.f00d7308.Emscripten.clang"
  },
  "schemaVersion": "3.4.6",
  "updatedAt": "2022-04-23T19:55:53.912Z",
  "devdoc": {
    "kind": "dev",
    "methods": {},
    "version": 1
  },
  "userdoc": {
    "kind": "user",
    "methods": {},
    "version": 1
  }
}