{
  "contractName": "Mint",
  "abi": [
    {
      "inputs": [],
      "stateMutability": "nonpayable",
      "type": "constructor"
    },
    {
      "anonymous": false,
      "inputs": [
        {
          "indexed": false,
          "internalType": "address",
          "name": "from",
          "type": "address"
        },
        {
          "indexed": false,
          "internalType": "address",
          "name": "to",
          "type": "address"
        },
        {
          "indexed": false,
          "internalType": "uint256",
          "name": "amount",
          "type": "uint256"
        }
      ],
      "name": "TransactionCompleted",
      "type": "event"
    },
    {
      "inputs": [
        {
          "internalType": "uint256",
          "name": "",
          "type": "uint256"
        }
      ],
      "name": "accounts",
      "outputs": [
        {
          "internalType": "address",
          "name": "",
          "type": "address"
        }
      ],
      "stateMutability": "view",
      "type": "function",
      "constant": true
    },
    {
      "inputs": [
        {
          "internalType": "address",
          "name": "",
          "type": "address"
        }
      ],
      "name": "balances",
      "outputs": [
        {
          "internalType": "uint256",
          "name": "",
          "type": "uint256"
        }
      ],
      "stateMutability": "view",
      "type": "function",
      "constant": true
    },
    {
      "inputs": [],
      "name": "minter",
      "outputs": [
        {
          "internalType": "address",
          "name": "",
          "type": "address"
        }
      ],
      "stateMutability": "view",
      "type": "function",
      "constant": true
    },
    {
      "inputs": [],
      "name": "mint",
      "outputs": [],
      "stateMutability": "nonpayable",
      "type": "function"
    },
    {
      "inputs": [
        {
          "internalType": "address",
          "name": "addr",
          "type": "address"
        }
      ],
      "name": "getBalance",
      "outputs": [
        {
          "internalType": "uint256",
          "name": "",
          "type": "uint256"
        }
      ],
      "stateMutability": "view",
      "type": "function",
      "constant": true
    },
    {
      "inputs": [],
      "name": "getBalances",
      "outputs": [
        {
          "internalType": "string[10]",
          "name": "",
          "type": "string[10]"
        }
      ],
      "stateMutability": "view",
      "type": "function",
      "constant": true
    },
    {
      "inputs": [],
      "name": "makeRandomTransaction",
      "outputs": [],
      "stateMutability": "nonpayable",
      "type": "function"
    }
  ],
  "bytecode": "0x608060405234801561001057600080fd5b50336000806101000a81548173ffffffffffffffffffffffffffffffffffffffff021916908373ffffffffffffffffffffffffffffffffffffffff160217905550604051806101400160405280730caa0c75eb072abf72a61df0a2cd84a8d8e078da73ffffffffffffffffffffffffffffffffffffffff1673ffffffffffffffffffffffffffffffffffffffff16815260200173d9437084aaa20716c43b8da138591b5ac7acf9a673ffffffffffffffffffffffffffffffffffffffff1673ffffffffffffffffffffffffffffffffffffffff168152602001733af25d87fe2422ced6a2bbbbedf27825983235a273ffffffffffffffffffffffffffffffffffffffff1673ffffffffffffffffffffffffffffffffffffffff168152602001733b3efc0ddd12845b1f310e746be522440f2e00d073ffffffffffffffffffffffffffffffffffffffff1673ffffffffffffffffffffffffffffffffffffffff1681526020017345bf2462d250a614bb28b391215004eed2a7b99e73ffffffffffffffffffffffffffffffffffffffff1673ffffffffffffffffffffffffffffffffffffffff16815260200173bedbba51b64ec575e28156c16980211b88d12b4973ffffffffffffffffffffffffffffffffffffffff1673ffffffffffffffffffffffffffffffffffffffff1681526020017351f47a0b2a62433828bd256a40b408df9cc7578273ffffffffffffffffffffffffffffffffffffffff1673ffffffffffffffffffffffffffffffffffffffff168152602001731e02f1624962c1777324d51382436bc969537f2973ffffffffffffffffffffffffffffffffffffffff1673ffffffffffffffffffffffffffffffffffffffff16815260200173d316b5e627f2beb8c95e7ed786afde75a3a90bba73ffffffffffffffffffffffffffffffffffffffff1673ffffffffffffffffffffffffffffffffffffffff16815260200173aad5e06b60d5b9210a02c3001f784dd2d20cd25273ffffffffffffffffffffffffffffffffffffffff1673ffffffffffffffffffffffffffffffffffffffff16815250600190600a61032792919061032d565b506103c7565b82600a8101928215610399579160200282015b828111156103985782518260006101000a81548173ffffffffffffffffffffffffffffffffffffffff021916908373ffffffffffffffffffffffffffffffffffffffff16021790555091602001919060010190610340565b5b5090506103a691906103aa565b5090565b5b808211156103c35760008160009055506001016103ab565b5090565b610e1e806103d66000396000f3fe608060405234801561001057600080fd5b506004361061007c5760003560e01c806327e235e31161005b57806327e235e3146100c7578063c20a5f72146100f7578063f2a40db814610101578063f8b2cb4f146101315761007c565b8062113e0814610081578063075461721461009f5780631249c58b146100bd575b600080fd5b610089610161565b6040516100969190610932565b60405180910390f35b6100a761028a565b6040516100b49190610995565b60405180910390f35b6100c56102ae565b005b6100e160048036038101906100dc91906109e1565b610352565b6040516100ee9190610a27565b60405180910390f35b6100ff61036a565b005b61011b60048036038101906101169190610a6e565b6105db565b6040516101289190610995565b60405180910390f35b61014b600480360381019061014691906109e1565b610611565b6040516101589190610a27565b60405180910390f35b6101696107bb565b6101716107bb565b60005b600a8110156102825760006101888261065a565b905060008160405160200161019d9190610b23565b6040516020818303038152906040529050600061022d600b6000600187600a81106101cb576101ca610b45565b5b0160009054906101000a900473ffffffffffffffffffffffffffffffffffffffff1673ffffffffffffffffffffffffffffffffffffffff1673ffffffffffffffffffffffffffffffffffffffff1681526020019081526020016000205461065a565b90508181604051602001610242929190610bc0565b6040516020818303038152906040528585600a811061026457610263610b45565b5b6020020181905250505050808061027a90610c1e565b915050610174565b508091505090565b60008054906101000a900473ffffffffffffffffffffffffffffffffffffffff1681565b6000620186a0905060005b600a81101561034e5781600b6000600184600a81106102db576102da610b45565b5b0160009054906101000a900473ffffffffffffffffffffffffffffffffffffffff1673ffffffffffffffffffffffffffffffffffffffff1673ffffffffffffffffffffffffffffffffffffffff16815260200190815260200160002081905550808061034690610c1e565b9150506102b9565b5050565b600b6020528060005260406000206000915090505481565b6000606490506000730caa0c75eb072abf72a61df0a2cd84a8d8e078da90506000730caa0c75eb072abf72a61df0a2cd84a8d8e078da90506000600a436103b19190610c96565b90506000600a426103c29190610c96565b90505b8273ffffffffffffffffffffffffffffffffffffffff168473ffffffffffffffffffffffffffffffffffffffff16148061043d5750600b60008573ffffffffffffffffffffffffffffffffffffffff1673ffffffffffffffffffffffffffffffffffffffff1681526020019081526020016000205485115b156104ed5760018261044f9190610cc7565b915060028161045e9190610cc7565b90506001600a8361046f9190610c96565b600a81106104805761047f610b45565b5b0160009054906101000a900473ffffffffffffffffffffffffffffffffffffffff1693506001600a826104b39190610c96565b600a81106104c4576104c3610b45565b5b0160009054906101000a900473ffffffffffffffffffffffffffffffffffffffff1692506103c5565b84600b60008673ffffffffffffffffffffffffffffffffffffffff1673ffffffffffffffffffffffffffffffffffffffff168152602001908152602001600020600082825461053c9190610d1d565b9250508190555084600b60008573ffffffffffffffffffffffffffffffffffffffff1673ffffffffffffffffffffffffffffffffffffffff16815260200190815260200160002060008282546105929190610cc7565b925050819055507fbdea9514fff93c78513cf82dd97b60a7e6dd83acf38c3f27743c24b1a850ecd18484876040516105cc93929190610d51565b60405180910390a15050505050565b600181600a81106105eb57600080fd5b016000915054906101000a900473ffffffffffffffffffffffffffffffffffffffff1681565b6000600b60008373ffffffffffffffffffffffffffffffffffffffff1673ffffffffffffffffffffffffffffffffffffffff168152602001908152602001600020549050919050565b606060008214156106a2576040518060400160405280600181526020017f300000000000000000000000000000000000000000000000000000000000000081525090506107b6565b600082905060005b600082146106d45780806106bd90610c1e565b915050600a826106cd9190610d88565b91506106aa565b60008167ffffffffffffffff8111156106f0576106ef610db9565b5b6040519080825280601f01601f1916602001820160405280156107225781602001600182028036833780820191505090505b5090505b600085146107af5760018261073b9190610d1d565b9150600a8561074a9190610c96565b60306107569190610cc7565b60f81b81838151811061076c5761076b610b45565b5b60200101907effffffffffffffffffffffffffffffffffffffffffffffffffffffffffffff1916908160001a905350600a856107a89190610d88565b9450610726565b8093505050505b919050565b604051806101400160405280600a905b60608152602001906001900390816107cb5790505090565b6000600a9050919050565b600081905092915050565b6000819050919050565b600081519050919050565b600082825260208201905092915050565b60005b8381101561083d578082015181840152602081019050610822565b8381111561084c576000848401525b50505050565b6000601f19601f8301169050919050565b600061086e82610803565b610878818561080e565b935061088881856020860161081f565b61089181610852565b840191505092915050565b60006108a88383610863565b905092915050565b6000602082019050919050565b60006108c8826107e3565b6108d281856107ee565b9350836020820285016108e4856107f9565b8060005b858110156109205784840389528151610901858261089c565b945061090c836108b0565b925060208a019950506001810190506108e8565b50829750879550505050505092915050565b6000602082019050818103600083015261094c81846108bd565b905092915050565b600073ffffffffffffffffffffffffffffffffffffffff82169050919050565b600061097f82610954565b9050919050565b61098f81610974565b82525050565b60006020820190506109aa6000830184610986565b92915050565b600080fd5b6109be81610974565b81146109c957600080fd5b50565b6000813590506109db816109b5565b92915050565b6000602082840312156109f7576109f66109b0565b5b6000610a05848285016109cc565b91505092915050565b6000819050919050565b610a2181610a0e565b82525050565b6000602082019050610a3c6000830184610a18565b92915050565b610a4b81610a0e565b8114610a5657600080fd5b50565b600081359050610a6881610a42565b92915050565b600060208284031215610a8457610a836109b0565b5b6000610a9284828501610a59565b91505092915050565b600081905092915050565b7f4163636f756e7420000000000000000000000000000000000000000000000000600082015250565b6000610adc600883610a9b565b9150610ae782610aa6565b600882019050919050565b6000610afd82610803565b610b078185610a9b565b9350610b1781856020860161081f565b80840191505092915050565b6000610b2e82610acf565b9150610b3a8284610af2565b915081905092915050565b7f4e487b7100000000000000000000000000000000000000000000000000000000600052603260045260246000fd5b7f3a20000000000000000000000000000000000000000000000000000000000000600082015250565b6000610baa600283610a9b565b9150610bb582610b74565b600282019050919050565b6000610bcc8285610af2565b9150610bd782610b9d565b9150610be38284610af2565b91508190509392505050565b7f4e487b7100000000000000000000000000000000000000000000000000000000600052601160045260246000fd5b6000610c2982610a0e565b91507fffffffffffffffffffffffffffffffffffffffffffffffffffffffffffffffff821415610c5c57610c5b610bef565b5b600182019050919050565b7f4e487b7100000000000000000000000000000000000000000000000000000000600052601260045260246000fd5b6000610ca182610a0e565b9150610cac83610a0e565b925082610cbc57610cbb610c67565b5b828206905092915050565b6000610cd282610a0e565b9150610cdd83610a0e565b9250827fffffffffffffffffffffffffffffffffffffffffffffffffffffffffffffffff03821115610d1257610d11610bef565b5b828201905092915050565b6000610d2882610a0e565b9150610d3383610a0e565b925082821015610d4657610d45610bef565b5b828203905092915050565b6000606082019050610d666000830186610986565b610d736020830185610986565b610d806040830184610a18565b949350505050565b6000610d9382610a0e565b9150610d9e83610a0e565b925082610dae57610dad610c67565b5b828204905092915050565b7f4e487b7100000000000000000000000000000000000000000000000000000000600052604160045260246000fdfea264697066735822122099809ec62338e64cb3b21a2147862dd98482dc89ed22d4950ef67e73f0978ae364736f6c634300080c0033",
  "immutableReferences": {},
  "source": "// SPDX-License-Identifier: GPL-3.0\npragma solidity ^0.8.4;\n\ncontract Mint {\n    // The keyword \"public\" makes variables\n    // accessible from other contracts\n    address public minter;\n    address[10] public accounts;\n    mapping (address => uint) public balances;\n\n\n    // Constructor code is only run when the contract\n    // is created\n    constructor() {\n        minter = msg.sender;\n        accounts =  [0x0cAA0C75eb072ABf72a61dF0a2Cd84A8d8E078da,\n                    0xd9437084aaA20716C43B8dA138591b5aC7acF9A6, \n                    0x3af25D87fE2422CeD6a2bbbbeDf27825983235A2, \n                    0x3b3efc0dDd12845B1F310E746be522440F2E00D0,\n                    0x45Bf2462d250A614bB28b391215004EeD2a7b99E, \n                    0xBedbba51B64ec575e28156c16980211B88d12b49, \n                    0x51f47a0B2A62433828BD256A40b408df9CC75782, \n                    0x1e02F1624962c1777324D51382436Bc969537F29, \n                    0xD316b5e627F2BeB8c95e7Ed786AFDe75a3a90bba, \n                    0xaaD5e06B60D5B9210a02C3001F784dD2d20Cd252];\n    }\n    // Sends an amount of newly created coins to an address\n    // Can only be called by the contract creator\n    function mint() public {\n        uint starting_balance = 100000;\n        // require(msg.sender == minter);\n\n        for (uint i=0; i<10; i++){\n            balances[accounts[i]] = starting_balance;\n        }\n    }\n\n    function getBalance(address addr) public view returns(uint) {\n        return balances[addr];\n    }\n\n\n    function toString(uint256 value) internal pure returns (string memory) {\n        // Inspired by OraclizeAPI's implementation - MIT licence\n        // https://github.com/oraclize/ethereum-api/blob/b42146b063c7d6ee1358846c198246239e9360e8/oraclizeAPI_0.4.25.sol\n        if (value == 0) {\n            return \"0\";\n        }\n        uint256 temp = value;\n        uint256 digits;\n        while (temp != 0) {\n            digits++;\n            temp /= 10;\n        }\n        bytes memory buffer = new bytes(digits);\n        while (value != 0) {\n            digits -= 1;\n            buffer[digits] = bytes1(uint8(48 + uint256(value % 10)));\n            value /= 10;\n        }\n        return string(buffer);\n    }\n\n    function getBalances() public view returns(string[10] memory) {\n        string[10] memory account_and_balance;\n    \n        for (uint i=0; i<10; i++){\n            \n            string memory i_str = toString(i);\n            string memory account_str = string(abi.encodePacked(\"Account \", i_str));  \n            string memory balance_str = toString(balances[accounts[i]]);\n        \n            account_and_balance[i] = string(abi.encodePacked(account_str, \": \", balance_str));\n        }\n\n        return account_and_balance;\n    }\n\n    // Events allow clients to react to specific\n    // contract changes you declare\n    event TransactionCompleted(address from, address to, uint amount);\n\n    function makeRandomTransaction() public {\n\n        uint amount = 100;\n\n        address sender =    0x0cAA0C75eb072ABf72a61dF0a2Cd84A8d8E078da;\n        address receiver =  0x0cAA0C75eb072ABf72a61dF0a2Cd84A8d8E078da;\n\n        uint i = block.number % 10;\n        uint j = block.timestamp % 10;\n\n        while (sender == receiver || amount > balances[sender]){\n           i += 1;\n           j += 2;\n           sender = accounts[i % 10];\n           receiver = accounts[j % 10];\n        }\n\n        // send coins\n        balances[sender] -= amount;\n        balances[receiver] += amount;\n        emit TransactionCompleted(sender, receiver, amount);\n\n\n    }\n}",
  "sourcePath": "/Users/ishaangulati/Desktop/blockchain/BlockHeads/root/truffle/contracts/Mint.sol",
  "compiler": {
    "name": "solc",
    "version": "0.8.12+commit.f00d7308.Emscripten.clang"
  },
  "schemaVersion": "3.4.6",
  "updatedAt": "2022-04-02T23:41:53.860Z",
  "networkType": "ethereum",
  "devdoc": {
    "kind": "dev",
    "methods": {},
    "version": 1
  },
  "userdoc": {
    "kind": "user",
    "methods": {},
    "version": 1
  }
}